{
  "_format": "hh-sol-artifact-1",
  "contractName": "MultiSend",
  "sourceName": "contracts/MultiSend.sol",
  "abi": [
    {
      "inputs": [],
      "stateMutability": "payable",
      "type": "constructor"
    },
    {
      "anonymous": false,
      "inputs": [
        {
          "indexed": true,
          "internalType": "address",
          "name": "oldOwner",
          "type": "address"
        },
        {
          "indexed": true,
          "internalType": "address",
          "name": "newOwner",
          "type": "address"
        }
      ],
      "name": "OwnerSet",
      "type": "event"
    },
    {
      "inputs": [
        {
          "internalType": "address",
          "name": "newOwner",
          "type": "address"
        }
      ],
      "name": "changeOwner",
      "outputs": [],
      "stateMutability": "nonpayable",
      "type": "function"
    },
    {
      "inputs": [],
      "name": "charge",
      "outputs": [],
      "stateMutability": "payable",
      "type": "function"
    },
    {
      "inputs": [],
      "name": "getOwner",
      "outputs": [
        {
          "internalType": "address",
          "name": "",
          "type": "address"
        }
      ],
      "stateMutability": "view",
      "type": "function"
    },
    {
      "inputs": [
        {
          "internalType": "address payable[]",
          "name": "addrs",
          "type": "address[]"
        },
        {
          "internalType": "uint256[]",
          "name": "amounts",
          "type": "uint256[]"
        }
      ],
      "name": "withdrawals",
      "outputs": [],
      "stateMutability": "payable",
      "type": "function"
    }
  ],
  "bytecode": "0x60806040819052600080546001600160a01b03191633178082556001600160a01b0316917f342827c97908e5e2f71151c08502a66d44b6f758e3ac2f1de95f02eb95f0a735908290a3346001556106a18061005b6000396000f3fe60806040526004361061003f5760003560e01c80635516191314610044578063893d20e81461004e578063a6f9dae114610079578063d6c19d4b14610099575b600080fd5b61004c6100ac565b005b34801561005a57600080fd5b506100636100f8565b60405161007091906104bf565b60405180910390f35b34801561008557600080fd5b5061004c6100943660046103dc565b610107565b61004c6100a73660046103ff565b61018c565b6000546001600160a01b031633146100df5760405162461bcd60e51b81526004016100d6906104d3565b60405180910390fd5b34600160008282546100f191906105dd565b9091555050565b6000546001600160a01b031690565b6000546001600160a01b031633146101315760405162461bcd60e51b81526004016100d6906104d3565b600080546040516001600160a01b03808516939216917f342827c97908e5e2f71151c08502a66d44b6f758e3ac2f1de95f02eb95f0a73591a3600080546001600160a01b0319166001600160a01b0392909216919091179055565b6000546001600160a01b031633146101b65760405162461bcd60e51b81526004016100d6906104d3565b34600160008282546101c891906105dd565b909155505080518251146101ee5760405162461bcd60e51b81526004016100d690610545565b60006101f9826102d9565b905080600154101561021d5760405162461bcd60e51b81526004016100d690610500565b60005b83518110156102d35782818151811061024957634e487b7160e01b600052603260045260246000fd5b60200260200101516001600082825461026291906105f5565b925050819055506102c184828151811061028c57634e487b7160e01b600052603260045260246000fd5b60200260200101518483815181106102b457634e487b7160e01b600052603260045260246000fd5b6020026020010151610335565b806102cb8161060c565b915050610220565b50505050565b600080805b835181101561032e5783818151811061030757634e487b7160e01b600052603260045260246000fd5b60200260200101518261031a91906105dd565b9150806103268161060c565b9150506102de565b5092915050565b6040516001600160a01b0383169082156108fc029083906000818181858888f1935050505015801561036b573d6000803e3d6000fd5b505050565b600082601f830112610380578081fd5b81356020610395610390836105b9565b61058f565b82815281810190858301838502870184018810156103b1578586fd5b855b858110156103cf578135845292840192908401906001016103b3565b5090979650505050505050565b6000602082840312156103ed578081fd5b81356103f881610653565b9392505050565b60008060408385031215610411578081fd5b823567ffffffffffffffff80821115610428578283fd5b818501915085601f83011261043b578283fd5b8135602061044b610390836105b9565b82815281810190858301838502870184018b1015610467578788fd5b8796505b8487101561049257803561047e81610653565b83526001969096019591830191830161046b565b50965050860135925050808211156104a8578283fd5b506104b585828601610370565b9150509250929050565b6001600160a01b0391909116815260200190565b60208082526013908201527221b0b63632b91034b9903737ba1037bbb732b960691b604082015260600190565b60208082526025908201527f5468652076616c7565206973206e6f742073756666696369656e74206f7220656040820152641e18d9595960da1b606082015260800190565b6020808252602a908201527f546865206c656e677468206f662074776f2061727261792073686f756c64206260408201526965207468652073616d6560b01b606082015260800190565b60405181810167ffffffffffffffff811182821017156105b1576105b161063d565b604052919050565b600067ffffffffffffffff8211156105d3576105d361063d565b5060209081020190565b600082198211156105f0576105f0610627565b500190565b60008282101561060757610607610627565b500390565b600060001982141561062057610620610627565b5060010190565b634e487b7160e01b600052601160045260246000fd5b634e487b7160e01b600052604160045260246000fd5b6001600160a01b038116811461066857600080fd5b5056fea2646970667358221220a5c2e897ff948efa78e19beecc7497d1ba296cf3431ed1dd1cbff1637bfbc49364736f6c63430008000033",
  "linkReferences": {},
  "deployedLinkReferences": {}
}