{
  "_format": "hh-sol-artifact-1",
  "contractName": "SendWithoutOwner",
  "sourceName": "contracts/SendWithoutOwner.sol",
  "abi": [
    {
      "inputs": [],
      "stateMutability": "payable",
      "type": "constructor"
    },
    {
      "anonymous": false,
      "inputs": [
        {
          "indexed": true,
          "internalType": "address",
          "name": "oldOwner",
          "type": "address"
        },
        {
          "indexed": true,
          "internalType": "address",
          "name": "newOwner",
          "type": "address"
        }
      ],
      "name": "OwnerSet",
      "type": "event"
    },
    {
      "inputs": [
        {
          "internalType": "address",
          "name": "newOwner",
          "type": "address"
        }
      ],
      "name": "changeOwner",
      "outputs": [],
      "stateMutability": "nonpayable",
      "type": "function"
    },
    {
      "inputs": [],
      "name": "charge",
      "outputs": [],
      "stateMutability": "payable",
      "type": "function"
    },
    {
      "inputs": [],
      "name": "getOwner",
      "outputs": [
        {
          "internalType": "address",
          "name": "",
          "type": "address"
        }
      ],
      "stateMutability": "view",
      "type": "function"
    },
    {
      "inputs": [
        {
          "internalType": "address payable[]",
          "name": "addrs",
          "type": "address[]"
        },
        {
          "internalType": "uint256[]",
          "name": "amounts",
          "type": "uint256[]"
        }
      ],
      "name": "withdrawals",
      "outputs": [],
      "stateMutability": "payable",
      "type": "function"
    }
  ],
  "bytecode": "0x60806040819052600080546001600160a01b03191633178082556001600160a01b0316917f342827c97908e5e2f71151c08502a66d44b6f758e3ac2f1de95f02eb95f0a735908290a33460015561064d8061005b6000396000f3fe60806040526004361061003f5760003560e01c80635516191314610044578063893d20e81461004e578063a6f9dae114610079578063d6c19d4b14610099575b600080fd5b61004c6100ac565b005b34801561005a57600080fd5b506100636100c5565b604051610070919061046b565b60405180910390f35b34801561008557600080fd5b5061004c610094366004610388565b6100d4565b61004c6100a73660046103ab565b610162565b34600160008282546100be9190610589565b9091555050565b6000546001600160a01b031690565b6000546001600160a01b031633146101075760405162461bcd60e51b81526004016100fe9061047f565b60405180910390fd5b600080546040516001600160a01b03808516939216917f342827c97908e5e2f71151c08502a66d44b6f758e3ac2f1de95f02eb95f0a73591a3600080546001600160a01b0319166001600160a01b0392909216919091179055565b34600160008282546101749190610589565b9091555050805182511461019a5760405162461bcd60e51b81526004016100fe906104f1565b60006101a582610285565b90508060015410156101c95760405162461bcd60e51b81526004016100fe906104ac565b60005b835181101561027f578281815181106101f557634e487b7160e01b600052603260045260246000fd5b60200260200101516001600082825461020e91906105a1565b9250508190555061026d84828151811061023857634e487b7160e01b600052603260045260246000fd5b602002602001015184838151811061026057634e487b7160e01b600052603260045260246000fd5b60200260200101516102e1565b80610277816105b8565b9150506101cc565b50505050565b600080805b83518110156102da578381815181106102b357634e487b7160e01b600052603260045260246000fd5b6020026020010151826102c69190610589565b9150806102d2816105b8565b91505061028a565b5092915050565b6040516001600160a01b0383169082156108fc029083906000818181858888f19350505050158015610317573d6000803e3d6000fd5b505050565b600082601f83011261032c578081fd5b8135602061034161033c83610565565b61053b565b828152818101908583018385028701840188101561035d578586fd5b855b8581101561037b5781358452928401929084019060010161035f565b5090979650505050505050565b600060208284031215610399578081fd5b81356103a4816105ff565b9392505050565b600080604083850312156103bd578081fd5b823567ffffffffffffffff808211156103d4578283fd5b818501915085601f8301126103e7578283fd5b813560206103f761033c83610565565b82815281810190858301838502870184018b1015610413578788fd5b8796505b8487101561043e57803561042a816105ff565b835260019690960195918301918301610417565b5096505086013592505080821115610454578283fd5b506104618582860161031c565b9150509250929050565b6001600160a01b0391909116815260200190565b60208082526013908201527221b0b63632b91034b9903737ba1037bbb732b960691b604082015260600190565b60208082526025908201527f5468652076616c7565206973206e6f742073756666696369656e74206f7220656040820152641e18d9595960da1b606082015260800190565b6020808252602a908201527f546865206c656e677468206f662074776f2061727261792073686f756c64206260408201526965207468652073616d6560b01b606082015260800190565b60405181810167ffffffffffffffff8111828210171561055d5761055d6105e9565b604052919050565b600067ffffffffffffffff82111561057f5761057f6105e9565b5060209081020190565b6000821982111561059c5761059c6105d3565b500190565b6000828210156105b3576105b36105d3565b500390565b60006000198214156105cc576105cc6105d3565b5060010190565b634e487b7160e01b600052601160045260246000fd5b634e487b7160e01b600052604160045260246000fd5b6001600160a01b038116811461061457600080fd5b5056fea2646970667358221220ae0983d342053fa13759dfeeae1bac4879cb9b0e9c14a07c828fcf38ed4ff57064736f6c63430008000033",
  "linkReferences": {},
  "deployedLinkReferences": {}
}